{
  "contractName": "Postwall",
  "abi": [
    {
      "inputs": [],
      "stateMutability": "nonpayable",
      "type": "constructor"
    },
    {
      "inputs": [
        {
          "internalType": "uint256",
          "name": "",
          "type": "uint256"
        }
      ],
      "name": "posts",
      "outputs": [
        {
          "internalType": "uint256",
          "name": "id",
          "type": "uint256"
        },
        {
          "internalType": "uint256",
          "name": "timestamp",
          "type": "uint256"
        },
        {
          "internalType": "address",
          "name": "author",
          "type": "address"
        },
        {
          "internalType": "string",
          "name": "content",
          "type": "string"
        }
      ],
      "stateMutability": "view",
      "type": "function"
    },
    {
      "inputs": [
        {
          "internalType": "address",
          "name": "",
          "type": "address"
        }
      ],
      "name": "users",
      "outputs": [
        {
          "internalType": "bytes32",
          "name": "",
          "type": "bytes32"
        }
      ],
      "stateMutability": "view",
      "type": "function"
    },
    {
      "inputs": [
        {
          "internalType": "string",
          "name": "content",
          "type": "string"
        }
      ],
      "name": "createPost",
      "outputs": [],
      "stateMutability": "nonpayable",
      "type": "function"
    },
    {
      "inputs": [],
      "name": "getPosts",
      "outputs": [
        {
          "internalType": "uint256[]",
          "name": "",
          "type": "uint256[]"
        },
        {
          "internalType": "uint256[]",
          "name": "",
          "type": "uint256[]"
        },
        {
          "internalType": "address[]",
          "name": "",
          "type": "address[]"
        },
        {
          "internalType": "string[]",
          "name": "",
          "type": "string[]"
        }
      ],
      "stateMutability": "view",
      "type": "function"
    },
    {
      "inputs": [
        {
          "internalType": "bytes32",
          "name": "username",
          "type": "bytes32"
        }
      ],
      "name": "registerUser",
      "outputs": [],
      "stateMutability": "nonpayable",
      "type": "function"
    },
    {
      "inputs": [
        {
          "internalType": "address",
          "name": "userAddress",
          "type": "address"
        }
      ],
      "name": "getUsername",
      "outputs": [
        {
          "internalType": "bytes32",
          "name": "username",
          "type": "bytes32"
        }
      ],
      "stateMutability": "view",
      "type": "function"
    }
  ],
  "bytecode": "0x608060405234801561001057600080fd5b506000600281905550610e25806100286000396000f3fe608060405234801561001057600080fd5b50600436106100625760003560e01c80630b1e7f83146100675780632dc032591461009a57806341f3004a146100b6578063a87430ba146100d7578063c7303c6114610107578063ce43c03214610123575b600080fd5b610081600480360381019061007c9190610925565b610153565b6040516100919493929190610bfc565b60405180910390f35b6100b460048036038101906100af91906108b7565b61024b565b005b6100be610291565b6040516100ce9493929190610b80565b60405180910390f35b6100f160048036038101906100ec919061088e565b6105c2565b6040516100fe9190610be1565b60405180910390f35b610121600480360381019061011c91906108e0565b6105da565b005b61013d6004803603810190610138919061088e565b610712565b60405161014a9190610be1565b60405180910390f35b6001818154811061016357600080fd5b90600052602060002090600402016000915090508060000154908060010154908060020160009054906101000a900473ffffffffffffffffffffffffffffffffffffffff1690806003018054600181600116156101000203166002900480601f0160208091040260200160405190810160405280929190818152602001828054600181600116156101000203166002900480156102415780601f1061021657610100808354040283529160200191610241565b820191906000526020600020905b81548152906001019060200180831161022457829003601f168201915b5050505050905084565b806000803373ffffffffffffffffffffffffffffffffffffffff1673ffffffffffffffffffffffffffffffffffffffff1681526020019081526020016000208190555050565b606080606080606060025467ffffffffffffffff811180156102b257600080fd5b506040519080825280602002602001820160405280156102e15781602001602082028036833780820191505090505b509050606060025467ffffffffffffffff811180156102ff57600080fd5b5060405190808252806020026020018201604052801561032e5781602001602082028036833780820191505090505b509050606060025467ffffffffffffffff8111801561034c57600080fd5b5060405190808252806020026020018201604052801561037b5781602001602082028036833780820191505090505b509050606060025467ffffffffffffffff8111801561039957600080fd5b506040519080825280602002602001820160405280156103cd57816020015b60608152602001906001900390816103b85790505b50905060005b6002548110156105ab57600181815481106103ea57fe5b90600052602060002090600402016000015485828151811061040857fe5b6020026020010181815250506001818154811061042157fe5b90600052602060002090600402016001015484828151811061043f57fe5b6020026020010181815250506001818154811061045857fe5b906000526020600020906004020160020160009054906101000a900473ffffffffffffffffffffffffffffffffffffffff1683828151811061049657fe5b602002602001019073ffffffffffffffffffffffffffffffffffffffff16908173ffffffffffffffffffffffffffffffffffffffff1681525050600181815481106104dd57fe5b90600052602060002090600402016003018054600181600116156101000203166002900480601f0160208091040260200160405190810160405280929190818152602001828054600181600116156101000203166002900480156105825780601f1061055757610100808354040283529160200191610582565b820191906000526020600020905b81548152906001019060200180831161056557829003601f168201915b505050505082828151811061059357fe5b602002602001018190525080806001019150506103d3565b508383838397509750975097505050505090919293565b60006020528060005260406000206000915090505481565b6001604051806080016040528060025481526020014281526020013373ffffffffffffffffffffffffffffffffffffffff16815260200184848080601f016020809104026020016040519081016040528093929190818152602001838380828437600081840152601f19601f820116905080830192505050505050508152509080600181540180825580915050600190039060005260206000209060040201600090919091909150600082015181600001556020820151816001015560408201518160020160006101000a81548173ffffffffffffffffffffffffffffffffffffffff021916908373ffffffffffffffffffffffffffffffffffffffff16021790555060608201518160030190805190602001906106f992919061075a565b5050506002600081548092919060010191905055505050565b60008060008373ffffffffffffffffffffffffffffffffffffffff1673ffffffffffffffffffffffffffffffffffffffff168152602001908152602001600020549050919050565b828054600181600116156101000203166002900490600052602060002090601f01602090048101928261079057600085556107d7565b82601f106107a957805160ff19168380011785556107d7565b828001600101855582156107d7579182015b828111156107d65782518255916020019190600101906107bb565b5b5090506107e491906107e8565b5090565b5b808211156108015760008160009055506001016107e9565b5090565b60008135905061081481610daa565b92915050565b60008135905061082981610dc1565b92915050565b60008083601f84011261084157600080fd5b8235905067ffffffffffffffff81111561085a57600080fd5b60208301915083600182028301111561087257600080fd5b9250929050565b60008135905061088881610dd8565b92915050565b6000602082840312156108a057600080fd5b60006108ae84828501610805565b91505092915050565b6000602082840312156108c957600080fd5b60006108d78482850161081a565b91505092915050565b600080602083850312156108f357600080fd5b600083013567ffffffffffffffff81111561090d57600080fd5b6109198582860161082f565b92509250509250929050565b60006020828403121561093757600080fd5b600061094584828501610879565b91505092915050565b600061095a8383610992565b60208301905092915050565b60006109728383610af0565b905092915050565b60006109868383610b62565b60208301905092915050565b61099b81610d20565b82525050565b6109aa81610d20565b82525050565b60006109bb82610c78565b6109c58185610ccb565b93506109d083610c48565b8060005b83811015610a015781516109e8888261094e565b97506109f383610ca4565b9250506001810190506109d4565b5085935050505092915050565b6000610a1982610c83565b610a238185610cdc565b935083602082028501610a3585610c58565b8060005b85811015610a715784840389528151610a528582610966565b9450610a5d83610cb1565b925060208a01995050600181019050610a39565b50829750879550505050505092915050565b6000610a8e82610c8e565b610a988185610ced565b9350610aa383610c68565b8060005b83811015610ad4578151610abb888261097a565b9750610ac683610cbe565b925050600181019050610aa7565b5085935050505092915050565b610aea81610d32565b82525050565b6000610afb82610c99565b610b058185610cfe565b9350610b15818560208601610d66565b610b1e81610d99565b840191505092915050565b6000610b3482610c99565b610b3e8185610d0f565b9350610b4e818560208601610d66565b610b5781610d99565b840191505092915050565b610b6b81610d5c565b82525050565b610b7a81610d5c565b82525050565b60006080820190508181036000830152610b9a8187610a83565b90508181036020830152610bae8186610a83565b90508181036040830152610bc281856109b0565b90508181036060830152610bd68184610a0e565b905095945050505050565b6000602082019050610bf66000830184610ae1565b92915050565b6000608082019050610c116000830187610b71565b610c1e6020830186610b71565b610c2b60408301856109a1565b8181036060830152610c3d8184610b29565b905095945050505050565b6000819050602082019050919050565b6000819050602082019050919050565b6000819050602082019050919050565b600081519050919050565b600081519050919050565b600081519050919050565b600081519050919050565b6000602082019050919050565b6000602082019050919050565b6000602082019050919050565b600082825260208201905092915050565b600082825260208201905092915050565b600082825260208201905092915050565b600082825260208201905092915050565b600082825260208201905092915050565b6000610d2b82610d3c565b9050919050565b6000819050919050565b600073ffffffffffffffffffffffffffffffffffffffff82169050919050565b6000819050919050565b60005b83811015610d84578082015181840152602081019050610d69565b83811115610d93576000848401525b50505050565b6000601f19601f8301169050919050565b610db381610d20565b8114610dbe57600080fd5b50565b610dca81610d32565b8114610dd557600080fd5b50565b610de181610d5c565b8114610dec57600080fd5b5056fea2646970667358221220613c882b182edbf3a91f228366cf7e4097f1c8c38fbc9755772406284e1b26e464736f6c63430007040033",
  "immutableReferences": {},
  "source": "pragma solidity ^0.7.0;\r\npragma experimental ABIEncoderV2;\r\n\r\n// Creating a post and store it in contract\r\ncontract Postwall {\r\n    struct Post {\r\n        uint id;\r\n        uint timestamp;\r\n        address author;\r\n        string content;\r\n    }\r\n\r\n    mapping (address => bytes32) public users;\r\n    Post[] public posts;\r\n    uint postCount;\r\n\r\n    constructor() {\r\n        postCount = 0;\r\n    }\r\n\r\n    // Creates a post\r\n    function createPost(string calldata content) public {\r\n        posts.push(Post(postCount, block.timestamp, msg.sender, content));\r\n        postCount++;\r\n    }\r\n\r\n    // Retrieves the list of posts\r\n    function getPosts() public view returns (uint[] memory, uint[] memory, address[] memory, string[] memory) {\r\n        uint[] memory ids = new uint[](postCount);\r\n        uint[] memory timestamps = new uint[](postCount);\r\n        address[] memory authors = new address[](postCount);\r\n        string[] memory contents = new string[](postCount);\r\n        for (uint i = 0; i < postCount; i++) {\r\n            ids[i] = posts[i].id;\r\n            timestamps[i] = posts[i].timestamp;\r\n            authors[i] = posts[i].author;\r\n            contents[i] = posts[i].content;\r\n        }\r\n        return (ids, timestamps, authors, contents);\r\n    }\r\n\r\n    // Register user by username and address\r\n    function registerUser(bytes32 username) public {\r\n        users[msg.sender] = username;\r\n    }\r\n\r\n    // Get username, if user is unregistered return null\r\n    function getUsername(address userAddress) public view returns (bytes32 username) {\r\n        return users[userAddress];\r\n    }\r\n}",
  "sourcePath": "C:/Users/sadch/OneDrive/Documents/Flask/blockchain-postwall/contracts/Postwall.sol",
  "compiler": {
    "name": "solc",
    "version": "0.7.4+commit.3f05b770.Emscripten.clang"
  },
  "schemaVersion": "3.3.2",
  "updatedAt": "2020-12-07T05:13:15.944Z",
  "devdoc": {
    "kind": "dev",
    "methods": {},
    "version": 1
  },
  "userdoc": {
    "kind": "user",
    "methods": {},
    "version": 1
  }
}