{
  "contractName": "Postwall",
  "abi": [
    {
      "inputs": [],
      "stateMutability": "nonpayable",
      "type": "constructor"
    },
    {
      "inputs": [
        {
          "internalType": "uint256",
          "name": "",
          "type": "uint256"
        }
      ],
      "name": "posts",
      "outputs": [
        {
          "internalType": "uint256",
          "name": "id",
          "type": "uint256"
        },
        {
          "internalType": "uint256",
          "name": "timestamp",
          "type": "uint256"
        },
        {
          "internalType": "address",
          "name": "author",
          "type": "address"
        },
        {
          "internalType": "string",
          "name": "content",
          "type": "string"
        }
      ],
      "stateMutability": "view",
      "type": "function"
    },
    {
      "inputs": [
        {
          "internalType": "address",
          "name": "",
          "type": "address"
        }
      ],
      "name": "users",
      "outputs": [
        {
          "internalType": "bytes",
          "name": "username",
          "type": "bytes"
        }
      ],
      "stateMutability": "view",
      "type": "function"
    },
    {
      "inputs": [
        {
          "internalType": "string",
          "name": "content",
          "type": "string"
        }
      ],
      "name": "createPost",
      "outputs": [],
      "stateMutability": "nonpayable",
      "type": "function"
    },
    {
      "inputs": [],
      "name": "getPosts",
      "outputs": [
        {
          "internalType": "uint256[]",
          "name": "",
          "type": "uint256[]"
        },
        {
          "internalType": "uint256[]",
          "name": "",
          "type": "uint256[]"
        },
        {
          "internalType": "address[]",
          "name": "",
          "type": "address[]"
        },
        {
          "internalType": "string[]",
          "name": "",
          "type": "string[]"
        }
      ],
      "stateMutability": "view",
      "type": "function"
    },
    {
      "inputs": [
        {
          "internalType": "string",
          "name": "username",
          "type": "string"
        }
      ],
      "name": "createUser",
      "outputs": [],
      "stateMutability": "nonpayable",
      "type": "function"
    },
    {
      "inputs": [
        {
          "internalType": "address",
          "name": "userAddress",
          "type": "address"
        }
      ],
      "name": "checkUserRegistered",
      "outputs": [
        {
          "internalType": "bool",
          "name": "",
          "type": "bool"
        }
      ],
      "stateMutability": "view",
      "type": "function"
    },
    {
      "inputs": [
        {
          "internalType": "address",
          "name": "userAddress",
          "type": "address"
        }
      ],
      "name": "getUser",
      "outputs": [
        {
          "internalType": "string",
          "name": "username",
          "type": "string"
        },
        {
          "internalType": "address[]",
          "name": "followings",
          "type": "address[]"
        },
        {
          "internalType": "address[]",
          "name": "followers",
          "type": "address[]"
        }
      ],
      "stateMutability": "view",
      "type": "function"
    },
    {
      "inputs": [
        {
          "internalType": "address",
          "name": "userAddress",
          "type": "address"
        }
      ],
      "name": "getFollowings",
      "outputs": [
        {
          "internalType": "address[]",
          "name": "followings",
          "type": "address[]"
        }
      ],
      "stateMutability": "view",
      "type": "function"
    },
    {
      "inputs": [
        {
          "internalType": "address",
          "name": "userAddress",
          "type": "address"
        }
      ],
      "name": "getFollowers",
      "outputs": [
        {
          "internalType": "address[]",
          "name": "followers",
          "type": "address[]"
        }
      ],
      "stateMutability": "view",
      "type": "function"
    },
    {
      "inputs": [
        {
          "internalType": "address[]",
          "name": "followingsArray",
          "type": "address[]"
        },
        {
          "internalType": "address",
          "name": "followingAddress",
          "type": "address"
        },
        {
          "internalType": "address[]",
          "name": "followersArray",
          "type": "address[]"
        }
      ],
      "name": "updateFollowings",
      "outputs": [],
      "stateMutability": "nonpayable",
      "type": "function"
    }
  ],
  "bytecode": "0x608060405234801561001057600080fd5b506000600281905550611728806100286000396000f3fe608060405234801561001057600080fd5b506004361061009e5760003560e01c806387af7aa51161006657806387af7aa514610175578063a87430ba14610191578063c2fe2022146101c1578063c7303c61146101f1578063cca22f791461020d5761009e565b80630b1e7f83146100a357806341f3004a146100d6578063458f10d0146100f7578063507ffba5146101275780636f77926b14610143575b600080fd5b6100bd60048036038101906100b89190611158565b61023d565b6040516100cd94939291906114f8565b60405180910390f35b6100de610335565b6040516100ee949392919061140e565b60405180910390f35b610111600480360381019061010c9190611061565b610666565b60405161011e919061146f565b60405180910390f35b610141600480360381019061013c9190611113565b6106c8565b005b61015d60048036038101906101589190611061565b61071d565b60405161016c939291906114ac565b60405180910390f35b61018f600480360381019061018a919061108a565b610995565b005b6101ab60048036038101906101a69190611061565b610a3e565b6040516101b8919061148a565b60405180910390f35b6101db60048036038101906101d69190611061565b610af4565b6040516101e891906113ec565b60405180910390f35b61020b60048036038101906102069190611113565b610bc3565b005b61022760048036038101906102229190611061565b610cfb565b60405161023491906113ec565b60405180910390f35b6001818154811061024d57600080fd5b90600052602060002090600402016000915090508060000154908060010154908060020160009054906101000a900473ffffffffffffffffffffffffffffffffffffffff1690806003018054600181600116156101000203166002900480601f01602080910402602001604051908101604052809291908181526020018280546001816001161561010002031660029004801561032b5780601f106103005761010080835404028352916020019161032b565b820191906000526020600020905b81548152906001019060200180831161030e57829003601f168201915b5050505050905084565b606080606080606060025467ffffffffffffffff8111801561035657600080fd5b506040519080825280602002602001820160405280156103855781602001602082028036833780820191505090505b509050606060025467ffffffffffffffff811180156103a357600080fd5b506040519080825280602002602001820160405280156103d25781602001602082028036833780820191505090505b509050606060025467ffffffffffffffff811180156103f057600080fd5b5060405190808252806020026020018201604052801561041f5781602001602082028036833780820191505090505b509050606060025467ffffffffffffffff8111801561043d57600080fd5b5060405190808252806020026020018201604052801561047157816020015b606081526020019060019003908161045c5790505b50905060005b60025481101561064f576001818154811061048e57fe5b9060005260206000209060040201600001548582815181106104ac57fe5b602002602001018181525050600181815481106104c557fe5b9060005260206000209060040201600101548482815181106104e357fe5b602002602001018181525050600181815481106104fc57fe5b906000526020600020906004020160020160009054906101000a900473ffffffffffffffffffffffffffffffffffffffff1683828151811061053a57fe5b602002602001019073ffffffffffffffffffffffffffffffffffffffff16908173ffffffffffffffffffffffffffffffffffffffff16815250506001818154811061058157fe5b90600052602060002090600402016003018054600181600116156101000203166002900480601f0160208091040260200160405190810160405280929190818152602001828054600181600116156101000203166002900480156106265780601f106105fb57610100808354040283529160200191610626565b820191906000526020600020905b81548152906001019060200180831161060957829003601f168201915b505050505082828151811061063757fe5b60200260200101819052508080600101915050610477565b508383838397509750975097505050505090919293565b6000806000808473ffffffffffffffffffffffffffffffffffffffff1673ffffffffffffffffffffffffffffffffffffffff16815260200190815260200160002060000180546001816001161561010002031660029004905014159050919050565b81816000803373ffffffffffffffffffffffffffffffffffffffff1673ffffffffffffffffffffffffffffffffffffffff1681526020019081526020016000206000019190610718929190610dca565b505050565b60608060606000808573ffffffffffffffffffffffffffffffffffffffff1673ffffffffffffffffffffffffffffffffffffffff1681526020019081526020016000206000018054600181600116156101000203166002900480601f0160208091040260200160405190810160405280929190818152602001828054600181600116156101000203166002900480156107f75780601f106107cc576101008083540402835291602001916107f7565b820191906000526020600020905b8154815290600101906020018083116107da57829003601f168201915b505050505092506000808573ffffffffffffffffffffffffffffffffffffffff1673ffffffffffffffffffffffffffffffffffffffff1681526020019081526020016000206001018054806020026020016040519081016040528092919081815260200182805480156108bf57602002820191906000526020600020905b8160009054906101000a900473ffffffffffffffffffffffffffffffffffffffff1673ffffffffffffffffffffffffffffffffffffffff1681526020019060010190808311610875575b505050505091506000808573ffffffffffffffffffffffffffffffffffffffff1673ffffffffffffffffffffffffffffffffffffffff16815260200190815260200160002060020180548060200260200160405190810160405280929190818152602001828054801561098757602002820191906000526020600020905b8160009054906101000a900473ffffffffffffffffffffffffffffffffffffffff1673ffffffffffffffffffffffffffffffffffffffff168152602001906001019080831161093d575b505050505090509193909250565b84846000803373ffffffffffffffffffffffffffffffffffffffff1673ffffffffffffffffffffffffffffffffffffffff16815260200190815260200160002060010191906109e5929190610e58565b5081816000808673ffffffffffffffffffffffffffffffffffffffff1673ffffffffffffffffffffffffffffffffffffffff1681526020019081526020016000206002019190610a36929190610e58565b505050505050565b6000602052806000526040600020600091509050806000018054600181600116156101000203166002900480601f016020809104026020016040519081016040528092919081815260200182805460018160011615610100020316600290048015610aea5780601f10610abf57610100808354040283529160200191610aea565b820191906000526020600020905b815481529060010190602001808311610acd57829003601f168201915b5050505050905081565b60606000808373ffffffffffffffffffffffffffffffffffffffff1673ffffffffffffffffffffffffffffffffffffffff168152602001908152602001600020600201805480602002602001604051908101604052809291908181526020018280548015610bb757602002820191906000526020600020905b8160009054906101000a900473ffffffffffffffffffffffffffffffffffffffff1673ffffffffffffffffffffffffffffffffffffffff1681526020019060010190808311610b6d575b50505050509050919050565b6001604051806080016040528060025481526020014281526020013373ffffffffffffffffffffffffffffffffffffffff16815260200184848080601f016020809104026020016040519081016040528093929190818152602001838380828437600081840152601f19601f820116905080830192505050505050508152509080600181540180825580915050600190039060005260206000209060040201600090919091909150600082015181600001556020820151816001015560408201518160020160006101000a81548173ffffffffffffffffffffffffffffffffffffffff021916908373ffffffffffffffffffffffffffffffffffffffff1602179055506060820151816003019080519060200190610ce2929190610ef8565b5050506002600081548092919060010191905055505050565b60606000808373ffffffffffffffffffffffffffffffffffffffff1673ffffffffffffffffffffffffffffffffffffffff168152602001908152602001600020600101805480602002602001604051908101604052809291908181526020018280548015610dbe57602002820191906000526020600020905b8160009054906101000a900473ffffffffffffffffffffffffffffffffffffffff1673ffffffffffffffffffffffffffffffffffffffff1681526020019060010190808311610d74575b50505050509050919050565b828054600181600116156101000203166002900490600052602060002090601f016020900481019282610e005760008555610e47565b82601f10610e1957803560ff1916838001178555610e47565b82800160010185558215610e47579182015b82811115610e46578235825591602001919060010190610e2b565b5b509050610e549190610f86565b5090565b828054828255906000526020600020908101928215610ee7579160200282015b82811115610ee657823573ffffffffffffffffffffffffffffffffffffffff168260006101000a81548173ffffffffffffffffffffffffffffffffffffffff021916908373ffffffffffffffffffffffffffffffffffffffff16021790555091602001919060010190610e78565b5b509050610ef49190610f86565b5090565b828054600181600116156101000203166002900490600052602060002090601f016020900481019282610f2e5760008555610f75565b82601f10610f4757805160ff1916838001178555610f75565b82800160010185558215610f75579182015b82811115610f74578251825591602001919060010190610f59565b5b509050610f829190610f86565b5090565b5b80821115610f9f576000816000905550600101610f87565b5090565b600081359050610fb2816116c4565b92915050565b60008083601f840112610fca57600080fd5b8235905067ffffffffffffffff811115610fe357600080fd5b602083019150836020820283011115610ffb57600080fd5b9250929050565b60008083601f84011261101457600080fd5b8235905067ffffffffffffffff81111561102d57600080fd5b60208301915083600182028301111561104557600080fd5b9250929050565b60008135905061105b816116db565b92915050565b60006020828403121561107357600080fd5b600061108184828501610fa3565b91505092915050565b6000806000806000606086880312156110a257600080fd5b600086013567ffffffffffffffff8111156110bc57600080fd5b6110c888828901610fb8565b955095505060206110db88828901610fa3565b935050604086013567ffffffffffffffff8111156110f857600080fd5b61110488828901610fb8565b92509250509295509295909350565b6000806020838503121561112657600080fd5b600083013567ffffffffffffffff81111561114057600080fd5b61114c85828601611002565b92509250509250929050565b60006020828403121561116a57600080fd5b60006111788482850161104c565b91505092915050565b600061118d83836111c5565b60208301905092915050565b60006111a5838361135c565b905092915050565b60006111b983836113ce565b60208301905092915050565b6111ce81611638565b82525050565b6111dd81611638565b82525050565b60006111ee82611574565b6111f881856115d2565b935061120383611544565b8060005b8381101561123457815161121b8882611181565b9750611226836115ab565b925050600181019050611207565b5085935050505092915050565b600061124c8261157f565b61125681856115e3565b93508360208202850161126885611554565b8060005b858110156112a457848403895281516112858582611199565b9450611290836115b8565b925060208a0199505060018101905061126c565b50829750879550505050505092915050565b60006112c18261158a565b6112cb81856115f4565b93506112d683611564565b8060005b838110156113075781516112ee88826111ad565b97506112f9836115c5565b9250506001810190506112da565b5085935050505092915050565b61131d8161164a565b82525050565b600061132e82611595565b6113388185611605565b9350611348818560208601611680565b611351816116b3565b840191505092915050565b6000611367826115a0565b6113718185611616565b9350611381818560208601611680565b61138a816116b3565b840191505092915050565b60006113a0826115a0565b6113aa8185611627565b93506113ba818560208601611680565b6113c3816116b3565b840191505092915050565b6113d781611676565b82525050565b6113e681611676565b82525050565b6000602082019050818103600083015261140681846111e3565b905092915050565b6000608082019050818103600083015261142881876112b6565b9050818103602083015261143c81866112b6565b9050818103604083015261145081856111e3565b905081810360608301526114648184611241565b905095945050505050565b60006020820190506114846000830184611314565b92915050565b600060208201905081810360008301526114a48184611323565b905092915050565b600060608201905081810360008301526114c68186611395565b905081810360208301526114da81856111e3565b905081810360408301526114ee81846111e3565b9050949350505050565b600060808201905061150d60008301876113dd565b61151a60208301866113dd565b61152760408301856111d4565b81810360608301526115398184611395565b905095945050505050565b6000819050602082019050919050565b6000819050602082019050919050565b6000819050602082019050919050565b600081519050919050565b600081519050919050565b600081519050919050565b600081519050919050565b600081519050919050565b6000602082019050919050565b6000602082019050919050565b6000602082019050919050565b600082825260208201905092915050565b600082825260208201905092915050565b600082825260208201905092915050565b600082825260208201905092915050565b600082825260208201905092915050565b600082825260208201905092915050565b600061164382611656565b9050919050565b60008115159050919050565b600073ffffffffffffffffffffffffffffffffffffffff82169050919050565b6000819050919050565b60005b8381101561169e578082015181840152602081019050611683565b838111156116ad576000848401525b50505050565b6000601f19601f8301169050919050565b6116cd81611638565b81146116d857600080fd5b50565b6116e481611676565b81146116ef57600080fd5b5056fea264697066735822122033884d26425774d3618a00cb44e55dea6278265ab7db70355ac3a38924c3b28f64736f6c63430007040033",
  "immutableReferences": {},
  "source": "// SPDX-License-Identifier: MIT\r\npragma solidity ^0.7.0;\r\npragma experimental ABIEncoderV2;\r\n\r\n// Creating a post and store it in contract\r\ncontract Postwall {\r\n    struct Post {\r\n        uint id;\r\n        uint timestamp;\r\n        address author;\r\n        string content;\r\n    }\r\n\r\n    struct User {\r\n        bytes username;\r\n        address[] followings;\r\n        address[] followers;\r\n    }\r\n\r\n    mapping(address => User) public users;\r\n    Post[] public posts;\r\n    uint postCount;\r\n\r\n    constructor() {\r\n        postCount = 0;\r\n    }\r\n\r\n    // Creates a post\r\n    function createPost(string calldata content) public {\r\n        posts.push(Post(postCount, block.timestamp, msg.sender, content));\r\n        postCount++;\r\n    }\r\n\r\n    // Retrieves the list of posts\r\n    function getPosts() public view returns (uint[] memory, uint[] memory, address[] memory, string[] memory) {\r\n        uint[] memory ids = new uint[](postCount);\r\n        uint[] memory timestamps = new uint[](postCount);\r\n        address[] memory authors = new address[](postCount);\r\n        string[] memory contents = new string[](postCount);\r\n        for (uint i = 0; i < postCount; i++) {\r\n            ids[i] = posts[i].id;\r\n            timestamps[i] = posts[i].timestamp;\r\n            authors[i] = posts[i].author;\r\n            contents[i] = posts[i].content;\r\n        }\r\n        return (ids, timestamps, authors, contents);\r\n    }\r\n\r\n    // Register user by username and address\r\n    function createUser(string calldata username) public {\r\n        users[msg.sender].username = bytes(username);\r\n    }\r\n\r\n    function checkUserRegistered(address userAddress) public view returns (bool) {\r\n        return (users[userAddress].username.length != 0);\r\n    }\r\n\r\n    // Get username, if user is unregistered return null\r\n    function getUser(address userAddress) public view returns (string memory username, address[] memory followings, address[] memory followers) {\r\n\r\n        // returns\r\n        username = string(users[userAddress].username);\r\n        followings = users[userAddress].followings;\r\n        followers = users[userAddress].followers;\r\n    }\r\n    \r\n    function getFollowings(address userAddress) public view returns (address[] memory followings) {\r\n        return users[userAddress].followings;\r\n    }\r\n    \r\n    function getFollowers(address userAddress) public view returns (address[] memory followers) {\r\n        return users[userAddress].followers;\r\n    }\r\n    \r\n    // Update the sender's followings array and the target's followers array\r\n    function updateFollowings(address[] calldata followingsArray, address followingAddress, address[] calldata followersArray) public {\r\n        users[msg.sender].followings = followingsArray;\r\n        users[followingAddress].followers = followersArray;\r\n    }\r\n    \r\n}",
  "sourcePath": "C:/Users/sadch/OneDrive/Documents/Flask/blockchain-postwall/contracts/Postwall.sol",
  "compiler": {
    "name": "solc",
    "version": "0.7.4+commit.3f05b770.Emscripten.clang"
  },
  "schemaVersion": "3.3.3",
  "updatedAt": "2021-01-08T02:58:38.742Z",
  "devdoc": {
    "kind": "dev",
    "methods": {},
    "version": 1
  },
  "userdoc": {
    "kind": "user",
    "methods": {},
    "version": 1
  }
}